{
  "contractName": "EgorasProxy",
  "abi": [
    {
      "anonymous": false,
      "inputs": [
        {
          "indexed": false,
          "internalType": "address",
          "name": "_egorasServiceAddr",
          "type": "address"
        }
      ],
      "name": "EgorasServiceCreated",
      "type": "event"
    },
    {
      "inputs": [
        {
          "internalType": "address",
          "name": "_market",
          "type": "address"
        },
        {
          "internalType": "address",
          "name": "_token",
          "type": "address"
        },
        {
          "internalType": "address",
          "name": "_deployer",
          "type": "address"
        }
      ],
      "name": "createEgorasService",
      "outputs": [
        {
          "internalType": "address",
          "name": "_egorasServiceAddr",
          "type": "address"
        }
      ],
      "stateMutability": "nonpayable",
      "type": "function"
    }
  ],
  "bytecode": "0x608060405234801561001057600080fd5b50610204806100206000396000f3fe608060405234801561001057600080fd5b506004361061002b5760003560e01c806345fc613b14610030575b600080fd5b6100686004803603606081101561004657600080fd5b506001600160a01b038135811691602081013582169160409091013516610084565b604080516001600160a01b039092168252519081900360200190f35b60008084848460405161009690610121565b6001600160a01b03938416815291831660208301529091166040808301919091525190819003606001906000f0801580156100d5573d6000803e3d6000fd5b50604080516001600160a01b038316815290519193508392507f11d9ce4a8e8c2d9d30e2deb1409d886a9040bab2181a068aec3d726454f2ce3e919081900360200190a1509392505050565b60a18061012e8339019056fe6080604052348015600f57600080fd5b5060405160a138038060a183398181016040526060811015602f57600080fd5b5060400151600080546001600160a01b039092166001600160a01b0319909216919091179055603f8060626000396000f3fe6080604052600080fdfea2646970667358221220de0f09fe6d78de87ef0963e528c903879f1eb8cde95cb2dcd43520ae6e6ba13264736f6c634300060a0033a2646970667358221220eb41deff51173df8ecc29795a1731a43cff923f2670f4f3bd8461412c21dc44f64736f6c634300060a0033",
  "immutableReferences": {},
  "source": "pragma solidity >=0.4.0 <0.7.0;\r\n\r\nimport \"./EgorasProxyInterface.sol\";\r\nimport \"./EgorasService.sol\";\r\n\r\ncontract EgorasProxy is EgorasProxyInterface {\r\n    function createEgorasService(\r\n        address _market,\r\n        address _token,\r\n        address _deployer\r\n    ) public returns (address _egorasServiceAddr) {\r\n        EgorasService egorasService = new EgorasService(\r\n            _market,\r\n            _token,\r\n            _deployer\r\n        );\r\n        _egorasServiceAddr = address(egorasService);\r\n        emit EgorasServiceCreated(_egorasServiceAddr);\r\n    }\r\n}\r\n",
  "sourcePath": "C:\\xampp\\htdocs\\ngorasSmartContract\\contracts\\EgorasProxy.sol",
  "compiler": {
    "name": "solc",
    "version": "0.6.10+commit.00c0fcaf.Emscripten.clang"
  },
  "schemaVersion": "3.2.0",
  "updatedAt": "2020-06-24T12:03:09.196Z",
  "networkType": "ethereum",
  "devdoc": {
    "methods": {}
  },
  "userdoc": {
    "methods": {}
  }
}