{
  "contractName": "SafeDecimalMath",
  "abi": [
    {
      "inputs": [],
      "name": "PRECISE_UNIT",
      "outputs": [
        {
          "internalType": "uint256",
          "name": "",
          "type": "uint256"
        }
      ],
      "stateMutability": "view",
      "type": "function"
    },
    {
      "inputs": [],
      "name": "UNIT",
      "outputs": [
        {
          "internalType": "uint256",
          "name": "",
          "type": "uint256"
        }
      ],
      "stateMutability": "view",
      "type": "function"
    },
    {
      "inputs": [],
      "name": "decimals",
      "outputs": [
        {
          "internalType": "uint8",
          "name": "",
          "type": "uint8"
        }
      ],
      "stateMutability": "view",
      "type": "function"
    },
    {
      "inputs": [],
      "name": "highPrecisionDecimals",
      "outputs": [
        {
          "internalType": "uint8",
          "name": "",
          "type": "uint8"
        }
      ],
      "stateMutability": "view",
      "type": "function"
    },
    {
      "inputs": [],
      "name": "unit",
      "outputs": [
        {
          "internalType": "uint256",
          "name": "",
          "type": "uint256"
        }
      ],
      "stateMutability": "pure",
      "type": "function"
    },
    {
      "inputs": [],
      "name": "preciseUnit",
      "outputs": [
        {
          "internalType": "uint256",
          "name": "",
          "type": "uint256"
        }
      ],
      "stateMutability": "pure",
      "type": "function"
    }
  ],
  "bytecode": "0x61019f610026600b82828239805160001a60731461001957fe5b30600052607381538281f3fe730000000000000000000000000000000000000000301460806040526004361061006c5760003560e01c8063313ce56714610071578063864029e714610092578063907af6c0146100b05780639d8e2177146100ce578063d5e5e6e6146100ec578063def4419d1461010a575b600080fd5b61007961012b565b604051808260ff16815260200191505060405180910390f35b61009a610130565b6040518082815260200191505060405180910390f35b6100b861013b565b6040518082815260200191505060405180910390f35b6100d661014a565b6040518082815260200191505060405180910390f35b6100f4610155565b6040518082815260200191505060405180910390f35b610112610164565b604051808260ff16815260200191505060405180910390f35b601281565b601b60ff16600a0a81565b6000601260ff16600a0a905090565b601260ff16600a0a81565b6000601b60ff16600a0a905090565b601b8156fea26469706673582212201394b031d8d03942c3c127d9a09c2f21e2ab9a7946a678b3ee51eaf2996859e264736f6c63430007050033",
  "immutableReferences": {},
  "source": "// SPDX-License-Identifier: MIT\n\npragma solidity >=0.6.0 <0.8.0;\n\n// Libraries\nimport './SafeMath.sol';\n\n\n// https://docs.synthetix.io/contracts/SafeDecimalMath\nlibrary SafeDecimalMath {\n    using SafeMath for uint;\n\n    /* Number of decimal places in the representations. */\n    uint8 public constant decimals = 18;\n    uint8 public constant highPrecisionDecimals = 27;\n\n    /* The number representing 1.0. */\n    uint public constant UNIT = 10**uint(decimals);\n\n    /* The number representing 1.0 for higher fidelity numbers. */\n    uint public constant PRECISE_UNIT = 10**uint(highPrecisionDecimals);\n    uint private constant UNIT_TO_HIGH_PRECISION_CONVERSION_FACTOR = 10**uint(highPrecisionDecimals - decimals);\n\n    /**\n     * @return Provides an interface to UNIT.\n     */\n    function unit() external pure returns (uint) {\n        return UNIT;\n    }\n\n    /**\n     * @return Provides an interface to PRECISE_UNIT.\n     */\n    function preciseUnit() external pure returns (uint) {\n        return PRECISE_UNIT;\n    }\n\n    /**\n     * @return The result of multiplying x and y, interpreting the operands as fixed-point\n     * decimals.\n     *\n     * @dev A unit factor is divided out after the product of x and y is evaluated,\n     * so that product must be less than 2**256. As this is an integer division,\n     * the internal division always rounds down. This helps save on gas. Rounding\n     * is more expensive on gas.\n     */\n    function multiplyDecimal(uint x, uint y) internal pure returns (uint) {\n        /* Divide by UNIT to remove the extra factor introduced by the product. */\n        return x.mul(y) / UNIT;\n    }\n\n    /**\n     * @return The result of safely multiplying x and y, interpreting the operands\n     * as fixed-point decimals of the specified precision unit.\n     *\n     * @dev The operands should be in the form of a the specified unit factor which will be\n     * divided out after the product of x and y is evaluated, so that product must be\n     * less than 2**256.\n     *\n     * Unlike multiplyDecimal, this function rounds the result to the nearest increment.\n     * Rounding is useful when you need to retain fidelity for small decimal numbers\n     * (eg. small fractions or percentages).\n     */\n    function _multiplyDecimalRound(\n        uint x,\n        uint y,\n        uint precisionUnit\n    ) private pure returns (uint) {\n        /* Divide by UNIT to remove the extra factor introduced by the product. */\n        uint quotientTimesTen = x.mul(y) / (precisionUnit / 10);\n\n        if (quotientTimesTen % 10 >= 5) {\n            quotientTimesTen += 10;\n        }\n\n        return quotientTimesTen / 10;\n    }\n\n    /**\n     * @return The result of safely multiplying x and y, interpreting the operands\n     * as fixed-point decimals of a precise unit.\n     *\n     * @dev The operands should be in the precise unit factor which will be\n     * divided out after the product of x and y is evaluated, so that product must be\n     * less than 2**256.\n     *\n     * Unlike multiplyDecimal, this function rounds the result to the nearest increment.\n     * Rounding is useful when you need to retain fidelity for small decimal numbers\n     * (eg. small fractions or percentages).\n     */\n    function multiplyDecimalRoundPrecise(uint x, uint y) internal pure returns (uint) {\n        return _multiplyDecimalRound(x, y, PRECISE_UNIT);\n    }\n\n    /**\n     * @return The result of safely multiplying x and y, interpreting the operands\n     * as fixed-point decimals of a standard unit.\n     *\n     * @dev The operands should be in the standard unit factor which will be\n     * divided out after the product of x and y is evaluated, so that product must be\n     * less than 2**256.\n     *\n     * Unlike multiplyDecimal, this function rounds the result to the nearest increment.\n     * Rounding is useful when you need to retain fidelity for small decimal numbers\n     * (eg. small fractions or percentages).\n     */\n    function multiplyDecimalRound(uint x, uint y) internal pure returns (uint) {\n        return _multiplyDecimalRound(x, y, UNIT);\n    }\n\n    /**\n     * @return The result of safely dividing x and y. The return value is a high\n     * precision decimal.\n     *\n     * @dev y is divided after the product of x and the standard precision unit\n     * is evaluated, so the product of x and UNIT must be less than 2**256. As\n     * this is an integer division, the result is always rounded down.\n     * This helps save on gas. Rounding is more expensive on gas.\n     */\n    function divideDecimal(uint x, uint y) internal pure returns (uint) {\n        /* Reintroduce the UNIT factor that will be divided out by y. */\n        return x.mul(UNIT).div(y);\n    }\n\n    /**\n     * @return The result of safely dividing x and y. The return value is as a rounded\n     * decimal in the precision unit specified in the parameter.\n     *\n     * @dev y is divided after the product of x and the specified precision unit\n     * is evaluated, so the product of x and the specified precision unit must\n     * be less than 2**256. The result is rounded to the nearest increment.\n     */\n    function _divideDecimalRound(\n        uint x,\n        uint y,\n        uint precisionUnit\n    ) private pure returns (uint) {\n        uint resultTimesTen = x.mul(precisionUnit * 10).div(y);\n\n        if (resultTimesTen % 10 >= 5) {\n            resultTimesTen += 10;\n        }\n\n        return resultTimesTen / 10;\n    }\n\n    /**\n     * @return The result of safely dividing x and y. The return value is as a rounded\n     * standard precision decimal.\n     *\n     * @dev y is divided after the product of x and the standard precision unit\n     * is evaluated, so the product of x and the standard precision unit must\n     * be less than 2**256. The result is rounded to the nearest increment.\n     */\n    function divideDecimalRound(uint x, uint y) internal pure returns (uint) {\n        return _divideDecimalRound(x, y, UNIT);\n    }\n\n    /**\n     * @return The result of safely dividing x and y. The return value is as a rounded\n     * high precision decimal.\n     *\n     * @dev y is divided after the product of x and the high precision unit\n     * is evaluated, so the product of x and the high precision unit must\n     * be less than 2**256. The result is rounded to the nearest increment.\n     */\n    function divideDecimalRoundPrecise(uint x, uint y) internal pure returns (uint) {\n        return _divideDecimalRound(x, y, PRECISE_UNIT);\n    }\n\n    /**\n     * @dev Convert a standard decimal representation to a high precision one.\n     */\n    function decimalToPreciseDecimal(uint i) internal pure returns (uint) {\n        return i.mul(UNIT_TO_HIGH_PRECISION_CONVERSION_FACTOR);\n    }\n\n    /**\n     * @dev Convert a high precision decimal to a standard decimal representation.\n     */\n    function preciseDecimalToDecimal(uint i) internal pure returns (uint) {\n        uint quotientTimesTen = i / (UNIT_TO_HIGH_PRECISION_CONVERSION_FACTOR / 10);\n\n        if (quotientTimesTen % 10 >= 5) {\n            quotientTimesTen += 10;\n        }\n\n        return quotientTimesTen / 10;\n    }\n}",
  "sourcePath": "/home/chidimez/Dapps/sonergy-contract/contracts/SafeDecimalMath.sol",
  "compiler": {
    "name": "solc",
    "version": "0.7.5+commit.eb77ed08.Emscripten.clang"
  },
  "schemaVersion": "3.3.3",
  "updatedAt": "2021-01-06T20:54:12.979Z",
  "devdoc": {
    "kind": "dev",
    "methods": {
      "preciseUnit()": {
        "returns": {
          "_0": "Provides an interface to PRECISE_UNIT."
        }
      },
      "unit()": {
        "returns": {
          "_0": "Provides an interface to UNIT."
        }
      }
    },
    "version": 1
  },
  "userdoc": {
    "kind": "user",
    "methods": {},
    "version": 1
  }
}