{
  "contractName": "Sonergy_Survey_System_v1",
  "abi": [
    {
      "inputs": [
        {
          "internalType": "address",
          "name": "_sonergyTokenAddress",
          "type": "address"
        },
        {
          "internalType": "uint256",
          "name": "_fee",
          "type": "uint256"
        },
        {
          "internalType": "uint256",
          "name": "_validatorRegistrationFee",
          "type": "uint256"
        }
      ],
      "stateMutability": "nonpayable",
      "type": "constructor"
    },
    {
      "anonymous": false,
      "inputs": [
        {
          "indexed": false,
          "internalType": "address",
          "name": "_from",
          "type": "address"
        },
        {
          "indexed": false,
          "internalType": "address",
          "name": "_to",
          "type": "address"
        }
      ],
      "name": "MessengerChanged",
      "type": "event"
    },
    {
      "anonymous": false,
      "inputs": [
        {
          "indexed": false,
          "internalType": "uint256",
          "name": "_userID",
          "type": "uint256"
        },
        {
          "indexed": false,
          "internalType": "address",
          "name": "_validator",
          "type": "address"
        }
      ],
      "name": "NewValidator",
      "type": "event"
    },
    {
      "anonymous": false,
      "inputs": [
        {
          "indexed": true,
          "internalType": "address",
          "name": "previousOwner",
          "type": "address"
        },
        {
          "indexed": true,
          "internalType": "address",
          "name": "newOwner",
          "type": "address"
        }
      ],
      "name": "OwnershipTransferred",
      "type": "event"
    },
    {
      "anonymous": false,
      "inputs": [
        {
          "indexed": false,
          "internalType": "address",
          "name": "creator",
          "type": "address"
        },
        {
          "indexed": false,
          "internalType": "uint256",
          "name": "amount",
          "type": "uint256"
        },
        {
          "indexed": false,
          "internalType": "uint256",
          "name": "fee",
          "type": "uint256"
        },
        {
          "indexed": false,
          "internalType": "uint256",
          "name": "_duration",
          "type": "uint256"
        },
        {
          "indexed": false,
          "internalType": "uint256",
          "name": "survey_id",
          "type": "uint256"
        },
        {
          "indexed": false,
          "internalType": "enum Sonergy_Survey_System_v1.ChangeTypes",
          "name": "_type",
          "type": "uint8"
        }
      ],
      "name": "Paid",
      "type": "event"
    },
    {
      "anonymous": false,
      "inputs": [
        {
          "indexed": false,
          "internalType": "address",
          "name": "initiator",
          "type": "address"
        },
        {
          "indexed": false,
          "internalType": "uint256",
          "name": "_from",
          "type": "uint256"
        },
        {
          "indexed": false,
          "internalType": "uint256",
          "name": "_to",
          "type": "uint256"
        },
        {
          "indexed": false,
          "internalType": "uint256",
          "name": "_duration",
          "type": "uint256"
        },
        {
          "indexed": false,
          "internalType": "enum Sonergy_Survey_System_v1.ChangeTypes",
          "name": "_type",
          "type": "uint8"
        }
      ],
      "name": "PriceChanged",
      "type": "event"
    },
    {
      "anonymous": false,
      "inputs": [
        {
          "indexed": false,
          "internalType": "uint256[]",
          "name": "_validators",
          "type": "uint256[]"
        },
        {
          "indexed": false,
          "internalType": "uint256",
          "name": "_participantID",
          "type": "uint256"
        },
        {
          "indexed": false,
          "internalType": "uint256",
          "name": "_survey_id",
          "type": "uint256"
        },
        {
          "indexed": false,
          "internalType": "uint256",
          "name": "_newID",
          "type": "uint256"
        }
      ],
      "name": "ValidatedQuestionByUser",
      "type": "event"
    },
    {
      "inputs": [],
      "name": "fees",
      "outputs": [
        {
          "internalType": "uint256",
          "name": "",
          "type": "uint256"
        }
      ],
      "stateMutability": "view",
      "type": "function"
    },
    {
      "inputs": [],
      "name": "owner",
      "outputs": [
        {
          "internalType": "address",
          "name": "",
          "type": "address"
        }
      ],
      "stateMutability": "view",
      "type": "function"
    },
    {
      "inputs": [],
      "name": "renounceOwnership",
      "outputs": [],
      "stateMutability": "nonpayable",
      "type": "function"
    },
    {
      "inputs": [
        {
          "internalType": "address",
          "name": "newOwner",
          "type": "address"
        }
      ],
      "name": "transferOwnership",
      "outputs": [],
      "stateMutability": "nonpayable",
      "type": "function"
    },
    {
      "inputs": [],
      "name": "validatorRegistrationFee",
      "outputs": [
        {
          "internalType": "uint256",
          "name": "",
          "type": "uint256"
        }
      ],
      "stateMutability": "view",
      "type": "function"
    },
    {
      "inputs": [
        {
          "internalType": "uint256",
          "name": "survey_id",
          "type": "uint256"
        },
        {
          "internalType": "uint256",
          "name": "_duration",
          "type": "uint256"
        }
      ],
      "name": "payForSurvey",
      "outputs": [],
      "stateMutability": "nonpayable",
      "type": "function"
    },
    {
      "inputs": [
        {
          "internalType": "uint256",
          "name": "advert_id",
          "type": "uint256"
        },
        {
          "internalType": "uint256",
          "name": "_duration",
          "type": "uint256"
        }
      ],
      "name": "payForAdvert",
      "outputs": [],
      "stateMutability": "nonpayable",
      "type": "function"
    },
    {
      "inputs": [
        {
          "internalType": "uint256",
          "name": "_fee",
          "type": "uint256"
        }
      ],
      "name": "updateSurveyfee",
      "outputs": [],
      "stateMutability": "nonpayable",
      "type": "function"
    },
    {
      "inputs": [
        {
          "internalType": "uint256",
          "name": "_fee",
          "type": "uint256"
        }
      ],
      "name": "updateRegistrationFee",
      "outputs": [],
      "stateMutability": "nonpayable",
      "type": "function"
    },
    {
      "inputs": [
        {
          "internalType": "uint256",
          "name": "_price",
          "type": "uint256"
        },
        {
          "internalType": "uint256",
          "name": "_duration",
          "type": "uint256"
        }
      ],
      "name": "updateSurveyPlan",
      "outputs": [],
      "stateMutability": "nonpayable",
      "type": "function"
    },
    {
      "inputs": [
        {
          "internalType": "uint256",
          "name": "_price",
          "type": "uint256"
        },
        {
          "internalType": "uint256",
          "name": "_duration",
          "type": "uint256"
        }
      ],
      "name": "updateAdvertPlan",
      "outputs": [],
      "stateMutability": "nonpayable",
      "type": "function"
    },
    {
      "inputs": [
        {
          "internalType": "address",
          "name": "_messenger",
          "type": "address"
        }
      ],
      "name": "setMessenger",
      "outputs": [],
      "stateMutability": "nonpayable",
      "type": "function"
    },
    {
      "inputs": [],
      "name": "withdrawEarning",
      "outputs": [],
      "stateMutability": "nonpayable",
      "type": "function"
    },
    {
      "inputs": [
        {
          "internalType": "uint256",
          "name": "_userID",
          "type": "uint256"
        }
      ],
      "name": "becomeAValidator",
      "outputs": [],
      "stateMutability": "nonpayable",
      "type": "function"
    },
    {
      "inputs": [
        {
          "internalType": "uint256",
          "name": "_participantID",
          "type": "uint256"
        },
        {
          "internalType": "uint256[]",
          "name": "_validators",
          "type": "uint256[]"
        },
        {
          "internalType": "uint256",
          "name": "_surveyID",
          "type": "uint256"
        }
      ],
      "name": "validatedAnswers",
      "outputs": [],
      "stateMutability": "nonpayable",
      "type": "function"
    },
    {
      "inputs": [
        {
          "internalType": "uint256",
          "name": "_id",
          "type": "uint256"
        }
      ],
      "name": "getvalidatedAnswersByID",
      "outputs": [
        {
          "internalType": "uint256",
          "name": "_participantID",
          "type": "uint256"
        },
        {
          "internalType": "uint256[]",
          "name": "_validators",
          "type": "uint256[]"
        },
        {
          "internalType": "uint256",
          "name": "_surveyID",
          "type": "uint256"
        },
        {
          "internalType": "address",
          "name": "_messenger",
          "type": "address"
        }
      ],
      "stateMutability": "view",
      "type": "function"
    },
    {
      "inputs": [
        {
          "internalType": "uint256",
          "name": "_duration",
          "type": "uint256"
        }
      ],
      "name": "getPriceOfPlan",
      "outputs": [
        {
          "internalType": "uint256",
          "name": "_price",
          "type": "uint256"
        }
      ],
      "stateMutability": "view",
      "type": "function"
    },
    {
      "inputs": [],
      "name": "getFees",
      "outputs": [
        {
          "internalType": "uint256",
          "name": "_reg",
          "type": "uint256"
        },
        {
          "internalType": "uint256",
          "name": "_survey",
          "type": "uint256"
        }
      ],
      "stateMutability": "view",
      "type": "function"
    },
    {
      "inputs": [
        {
          "internalType": "uint256",
          "name": "_duration",
          "type": "uint256"
        }
      ],
      "name": "getPriceOfAdevert",
      "outputs": [
        {
          "internalType": "uint256",
          "name": "_price",
          "type": "uint256"
        }
      ],
      "stateMutability": "view",
      "type": "function"
    },
    {
      "inputs": [
        {
          "internalType": "address",
          "name": "_sonergyTokenAddress",
          "type": "address"
        }
      ],
      "name": "setSonergyTokenAddress",
      "outputs": [],
      "stateMutability": "nonpayable",
      "type": "function"
    },
    {
      "inputs": [],
      "name": "getSonergyTokenAddress",
      "outputs": [
        {
          "internalType": "address",
          "name": "_sonergyTokenAddress",
          "type": "address"
        }
      ],
      "stateMutability": "view",
      "type": "function"
    }
  ],
  "bytecode": "0x608060405234801561001057600080fd5b5060405162002796380380620027968339818101604052606081101561003557600080fd5b81019080805190602001909291908051906020019092919080519060200190929190505050600061006a61015f60201b60201c565b9050806000806101000a81548173ffffffffffffffffffffffffffffffffffffffff021916908373ffffffffffffffffffffffffffffffffffffffff1602179055508073ffffffffffffffffffffffffffffffffffffffff16600073ffffffffffffffffffffffffffffffffffffffff167f8be0079c531659141344cd1fd0a4f28419497f9722a3daafe3b4186f6b6457e060405160405180910390a35082600160006101000a81548173ffffffffffffffffffffffffffffffffffffffff021916908373ffffffffffffffffffffffffffffffffffffffff1602179055508160068190555080600781905550505050610167565b600033905090565b61261f80620001776000396000f3fe608060405234801561001057600080fd5b50600436106101375760003560e01c806386452b40116100b8578063a71021191161007c578063a710211914610528578063acfcc2e014610560578063af582c6b14610598578063c4fe9424146105c6578063db8d55f1146105e4578063f2fde38b1461060957610137565b806386452b40146103c8578063899161a0146104945780638da5cb5b1461049e5780639af1d35a146104d25780639e7f4333146104f057610137565b80634a88bf55116100ff5780634a88bf551461025c57806364953e121461030a578063662859671461034c5780636f56aab014610390578063715018a6146103be57610137565b806305265e4e1461013c57806310f90e801461017457806318032ca8146101a25780632a0a480b146101e65780632a9e9e3414610228575b600080fd5b6101726004803603604081101561015257600080fd5b81019080803590602001909291908035906020019092919050505061064d565b005b6101a06004803603602081101561018a57600080fd5b8101908080359060200190929190505050610a33565b005b6101e4600480360360208110156101b857600080fd5b81019080803573ffffffffffffffffffffffffffffffffffffffff169060200190929190505050610e40565b005b610212600480360360208110156101fc57600080fd5b8101908080359060200190929190505050610f4c565b6040518082815260200191505060405180910390f35b610230610f69565b604051808273ffffffffffffffffffffffffffffffffffffffff16815260200191505060405180910390f35b6102886004803603602081101561027257600080fd5b8101908080359060200190929190505050610f93565b60405180858152602001806020018481526020018373ffffffffffffffffffffffffffffffffffffffff168152602001828103825285818151815260200191508051906020019060200280838360005b838110156102f35780820151818401526020810190506102d8565b505050509050019550505050505060405180910390f35b6103366004803603602081101561032057600080fd5b81019080803590602001909291905050506110b0565b6040518082815260200191505060405180910390f35b61038e6004803603602081101561036257600080fd5b81019080803573ffffffffffffffffffffffffffffffffffffffff1690602001909291905050506110cd565b005b6103bc600480360360208110156103a657600080fd5b810190808035906020019092919050505061126c565b005b6103c66113c0565b005b610492600480360360608110156103de57600080fd5b81019080803590602001909291908035906020019064010000000081111561040557600080fd5b82018360208201111561041757600080fd5b8035906020019184602083028401116401000000008311171561043957600080fd5b919080806020026020016040519081016040528093929190818152602001838360200280828437600081840152601f19601f82011690508083019250505050505050919291929080359060200190929190505050611546565b005b61049c611794565b005b6104a6611a4c565b604051808273ffffffffffffffffffffffffffffffffffffffff16815260200191505060405180910390f35b6104da611a75565b6040518082815260200191505060405180910390f35b6105266004803603604081101561050657600080fd5b810190808035906020019092919080359060200190929190505050611a7b565b005b61055e6004803603604081101561053e57600080fd5b810190808035906020019092919080359060200190929190505050611bf1565b005b6105966004803603604081101561057657600080fd5b810190808035906020019092919080359060200190929190505050611f9f565b005b6105c4600480360360208110156105ae57600080fd5b8101908080359060200190929190505050612115565b005b6105ce612269565b6040518082815260200191505060405180910390f35b6105ec61226f565b604051808381526020018281526020019250505060405180910390f35b61064b6004803603602081101561061f57600080fd5b81019080803573ffffffffffffffffffffffffffffffffffffffff169060200190929190505050612280565b005b6000600160009054906101000a900473ffffffffffffffffffffffffffffffffffffffff16905060006003600084815260200190815260200160002054905060008111610702576040517f08c379a000000000000000000000000000000000000000000000000000000000815260040180806020018281038252600c8152602001807f496e76616c696420706c616e000000000000000000000000000000000000000081525060200191505060405180910390fd5b6000600654612710838161071257fe5b05029050610729818361248b90919063ffffffff16565b8373ffffffffffffffffffffffffffffffffffffffff1663dd62ed3e33306040518363ffffffff1660e01b8152600401808373ffffffffffffffffffffffffffffffffffffffff1681526020018273ffffffffffffffffffffffffffffffffffffffff1681526020019250505060206040518083038186803b1580156107ae57600080fd5b505afa1580156107c2573d6000803e3d6000fd5b505050506040513d60208110156107d857600080fd5b8101908080519060200190929190505050101561085d576040517f08c379a00000000000000000000000000000000000000000000000000000000081526004018080602001828103825260148152602001807f4e6f6e2d73756666696369656e742066756e647300000000000000000000000081525060200191505060405180910390fd5b8273ffffffffffffffffffffffffffffffffffffffff166323b872dd333061088e858761248b90919063ffffffff16565b6040518463ffffffff1660e01b8152600401808473ffffffffffffffffffffffffffffffffffffffff1681526020018373ffffffffffffffffffffffffffffffffffffffff1681526020018281526020019350505050602060405180830381600087803b1580156108fe57600080fd5b505af1158015610912573d6000803e3d6000fd5b505050506040513d602081101561092857600080fd5b81019080805190602001909291905050506109ab576040517f08c379a00000000000000000000000000000000000000000000000000000000081526004018080602001828103825260148152602001807f4661696c20746f207472616e6665722066756e6400000000000000000000000081525060200191505060405180910390fd5b7faf72cccbbe7217bbfe27009f5d2318f48d59102c62713098a86ec2ebc920bc8933838387896000604051808773ffffffffffffffffffffffffffffffffffffffff168152602001868152602001858152602001848152602001838152602001826003811115610a1757fe5b8152602001965050505050505060405180910390a15050505050565b600560003373ffffffffffffffffffffffffffffffffffffffff1673ffffffffffffffffffffffffffffffffffffffff16815260200190815260200160002060009054906101000a900460ff1615610af3576040517f08c379a00000000000000000000000000000000000000000000000000000000081526004018080602001828103825260138152602001807f416c726561647920612076616c696461746f720000000000000000000000000081525060200191505060405180910390fd5b6000600160009054906101000a900473ffffffffffffffffffffffffffffffffffffffff1690506007548173ffffffffffffffffffffffffffffffffffffffff1663dd62ed3e33306040518363ffffffff1660e01b8152600401808373ffffffffffffffffffffffffffffffffffffffff1681526020018273ffffffffffffffffffffffffffffffffffffffff1681526020019250505060206040518083038186803b158015610ba257600080fd5b505afa158015610bb6573d6000803e3d6000fd5b505050506040513d6020811015610bcc57600080fd5b81019080805190602001909291905050501015610c51576040517f08c379a00000000000000000000000000000000000000000000000000000000081526004018080602001828103825260148152602001807f4e6f6e2d73756666696369656e742066756e647300000000000000000000000081525060200191505060405180910390fd5b8073ffffffffffffffffffffffffffffffffffffffff166323b872dd33306007546040518463ffffffff1660e01b8152600401808473ffffffffffffffffffffffffffffffffffffffff1681526020018373ffffffffffffffffffffffffffffffffffffffff1681526020018281526020019350505050602060405180830381600087803b158015610ce257600080fd5b505af1158015610cf6573d6000803e3d6000fd5b505050506040513d6020811015610d0c57600080fd5b8101908080519060200190929190505050610d8f576040517f08c379a00000000000000000000000000000000000000000000000000000000081526004018080602001828103825260148152602001807f4661696c20746f207472616e6665722066756e6400000000000000000000000081525060200191505060405180910390fd5b7fcbde0481b37e4b90d96b4492b49bcd7b48b260233519b878611a16a184b071aa8233604051808381526020018273ffffffffffffffffffffffffffffffffffffffff1681526020019250505060405180910390a16001600560003373ffffffffffffffffffffffffffffffffffffffff1673ffffffffffffffffffffffffffffffffffffffff16815260200190815260200160002060006101000a81548160ff0219169083151502179055505050565b610e48612513565b73ffffffffffffffffffffffffffffffffffffffff1660008054906101000a900473ffffffffffffffffffffffffffffffffffffffff1673ffffffffffffffffffffffffffffffffffffffff1614610f08576040517f08c379a00000000000000000000000000000000000000000000000000000000081526004018080602001828103825260208152602001807f4f776e61626c653a2063616c6c6572206973206e6f7420746865206f776e657281525060200191505060405180910390fd5b80600160006101000a81548173ffffffffffffffffffffffffffffffffffffffff021916908373ffffffffffffffffffffffffffffffffffffffff16021790555050565b600060046000838152602001908152602001600020549050919050565b6000600160009054906101000a900473ffffffffffffffffffffffffffffffffffffffff16905090565b60006060600080610fa261251b565b60088681548110610faf57fe5b9060005260206000209060040201604051806080016040529081600082015481526020016001820180548060200260200160405190810160405280929190818152602001828054801561102157602002820191906000526020600020905b81548152602001906001019080831161100d575b50505050508152602001600282015481526020016003820160009054906101000a900473ffffffffffffffffffffffffffffffffffffffff1673ffffffffffffffffffffffffffffffffffffffff1673ffffffffffffffffffffffffffffffffffffffff1681525050905080600001518160200151826040015183606001519450945094509450509193509193565b600060036000838152602001908152602001600020549050919050565b6110d5612513565b73ffffffffffffffffffffffffffffffffffffffff1660008054906101000a900473ffffffffffffffffffffffffffffffffffffffff1673ffffffffffffffffffffffffffffffffffffffff1614611195576040517f08c379a00000000000000000000000000000000000000000000000000000000081526004018080602001828103825260208152602001807f4f776e61626c653a2063616c6c6572206973206e6f7420746865206f776e657281525060200191505060405180910390fd5b6000600260009054906101000a900473ffffffffffffffffffffffffffffffffffffffff16905081600260006101000a81548173ffffffffffffffffffffffffffffffffffffffff021916908373ffffffffffffffffffffffffffffffffffffffff1602179055507fbb79f9a15848b49f81b17a2829adc8f59d1f24071f0626af7b14397728f2f1768183604051808373ffffffffffffffffffffffffffffffffffffffff1681526020018273ffffffffffffffffffffffffffffffffffffffff1681526020019250505060405180910390a15050565b611274612513565b73ffffffffffffffffffffffffffffffffffffffff1660008054906101000a900473ffffffffffffffffffffffffffffffffffffffff1673ffffffffffffffffffffffffffffffffffffffff1614611334576040517f08c379a00000000000000000000000000000000000000000000000000000000081526004018080602001828103825260208152602001807f4f776e61626c653a2063616c6c6572206973206e6f7420746865206f776e657281525060200191505060405180910390fd5b60006006549050816006819055507f748ad17c84288152c6f59a6e02bd1d19fb2abf07d5f8cd71b6f1159864c0d1e433828460006003604051808673ffffffffffffffffffffffffffffffffffffffff1681526020018581526020018481526020018381526020018260038111156113a857fe5b81526020019550505050505060405180910390a15050565b6113c8612513565b73ffffffffffffffffffffffffffffffffffffffff1660008054906101000a900473ffffffffffffffffffffffffffffffffffffffff1673ffffffffffffffffffffffffffffffffffffffff1614611488576040517f08c379a00000000000000000000000000000000000000000000000000000000081526004018080602001828103825260208152602001807f4f776e61626c653a2063616c6c6572206973206e6f7420746865206f776e657281525060200191505060405180910390fd5b600073ffffffffffffffffffffffffffffffffffffffff1660008054906101000a900473ffffffffffffffffffffffffffffffffffffffff1673ffffffffffffffffffffffffffffffffffffffff167f8be0079c531659141344cd1fd0a4f28419497f9722a3daafe3b4186f6b6457e060405160405180910390a360008060006101000a81548173ffffffffffffffffffffffffffffffffffffffff021916908373ffffffffffffffffffffffffffffffffffffffff160217905550565b600260009054906101000a900473ffffffffffffffffffffffffffffffffffffffff1673ffffffffffffffffffffffffffffffffffffffff163373ffffffffffffffffffffffffffffffffffffffff1614611609576040517f08c379a00000000000000000000000000000000000000000000000000000000081526004018080602001828103825260198152602001807f63616c6c6572206973206e6f742061206d657373656e6765720000000000000081525060200191505060405180910390fd5b61161161251b565b60405180608001604052808581526020018481526020018381526020013373ffffffffffffffffffffffffffffffffffffffff168152509050600881908060018154018082558091505060019003906000526020600020906004020160009091909190915060008201518160000155602082015181600101908051906020019061169c929190612559565b506040820151816002015560608201518160030160006101000a81548173ffffffffffffffffffffffffffffffffffffffff021916908373ffffffffffffffffffffffffffffffffffffffff1602179055505050600060016008805490500390507fc7db15b0b5e846ded80047df02967557f07e37f77f7bc802b3976fd483bb7359848685846040518080602001858152602001848152602001838152602001828103825286818151815260200191508051906020019060200280838360005b8381101561177757808201518184015260208101905061175c565b505050509050019550505050505060405180910390a15050505050565b61179c612513565b73ffffffffffffffffffffffffffffffffffffffff1660008054906101000a900473ffffffffffffffffffffffffffffffffffffffff1673ffffffffffffffffffffffffffffffffffffffff161461185c576040517f08c379a00000000000000000000000000000000000000000000000000000000081526004018080602001828103825260208152602001807f4f776e61626c653a2063616c6c6572206973206e6f7420746865206f776e657281525060200191505060405180910390fd5b6000600160009054906101000a900473ffffffffffffffffffffffffffffffffffffffff1690508073ffffffffffffffffffffffffffffffffffffffff1663a9059cbb6118a7611a4c565b8373ffffffffffffffffffffffffffffffffffffffff166370a08231306040518263ffffffff1660e01b8152600401808273ffffffffffffffffffffffffffffffffffffffff16815260200191505060206040518083038186803b15801561190e57600080fd5b505afa158015611922573d6000803e3d6000fd5b505050506040513d602081101561193857600080fd5b81019080805190602001909291905050506040518363ffffffff1660e01b8152600401808373ffffffffffffffffffffffffffffffffffffffff16815260200182815260200192505050602060405180830381600087803b15801561199c57600080fd5b505af11580156119b0573d6000803e3d6000fd5b505050506040513d60208110156119c657600080fd5b8101908080519060200190929190505050611a49576040517f08c379a00000000000000000000000000000000000000000000000000000000081526004018080602001828103825260138152602001807f4661696c20746f20656d707479207661756c740000000000000000000000000081525060200191505060405180910390fd5b50565b60008060009054906101000a900473ffffffffffffffffffffffffffffffffffffffff16905090565b60065481565b611a83612513565b73ffffffffffffffffffffffffffffffffffffffff1660008054906101000a900473ffffffffffffffffffffffffffffffffffffffff1673ffffffffffffffffffffffffffffffffffffffff1614611b43576040517f08c379a00000000000000000000000000000000000000000000000000000000081526004018080602001828103825260208152602001807f4f776e61626c653a2063616c6c6572206973206e6f7420746865206f776e657281525060200191505060405180910390fd5b6000600360008381526020019081526020016000205490508260036000848152602001908152602001600020819055507f748ad17c84288152c6f59a6e02bd1d19fb2abf07d5f8cd71b6f1159864c0d1e4338285856000604051808673ffffffffffffffffffffffffffffffffffffffff168152602001858152602001848152602001838152602001826003811115611bd857fe5b81526020019550505050505060405180910390a1505050565b6000600160009054906101000a900473ffffffffffffffffffffffffffffffffffffffff16905060006004600084815260200190815260200160002054905060008111611ca6576040517f08c379a000000000000000000000000000000000000000000000000000000000815260040180806020018281038252600c8152602001807f496e76616c696420706c616e000000000000000000000000000000000000000081525060200191505060405180910390fd5b808273ffffffffffffffffffffffffffffffffffffffff1663dd62ed3e33306040518363ffffffff1660e01b8152600401808373ffffffffffffffffffffffffffffffffffffffff1681526020018273ffffffffffffffffffffffffffffffffffffffff1681526020019250505060206040518083038186803b158015611d2c57600080fd5b505afa158015611d40573d6000803e3d6000fd5b505050506040513d6020811015611d5657600080fd5b81019080805190602001909291905050501015611ddb576040517f08c379a00000000000000000000000000000000000000000000000000000000081526004018080602001828103825260148152602001807f4e6f6e2d73756666696369656e742066756e647300000000000000000000000081525060200191505060405180910390fd5b8173ffffffffffffffffffffffffffffffffffffffff166323b872dd3330846040518463ffffffff1660e01b8152600401808473ffffffffffffffffffffffffffffffffffffffff1681526020018373ffffffffffffffffffffffffffffffffffffffff1681526020018281526020019350505050602060405180830381600087803b158015611e6a57600080fd5b505af1158015611e7e573d6000803e3d6000fd5b505050506040513d6020811015611e9457600080fd5b8101908080519060200190929190505050611f17576040517f08c379a00000000000000000000000000000000000000000000000000000000081526004018080602001828103825260148152602001807f4661696c20746f207472616e6665722066756e6400000000000000000000000081525060200191505060405180910390fd5b7faf72cccbbe7217bbfe27009f5d2318f48d59102c62713098a86ec2ebc920bc893382600086886002604051808773ffffffffffffffffffffffffffffffffffffffff168152602001868152602001858152602001848152602001838152602001826003811115611f8457fe5b8152602001965050505050505060405180910390a150505050565b611fa7612513565b73ffffffffffffffffffffffffffffffffffffffff1660008054906101000a900473ffffffffffffffffffffffffffffffffffffffff1673ffffffffffffffffffffffffffffffffffffffff1614612067576040517f08c379a00000000000000000000000000000000000000000000000000000000081526004018080602001828103825260208152602001807f4f776e61626c653a2063616c6c6572206973206e6f7420746865206f776e657281525060200191505060405180910390fd5b6000600460008381526020019081526020016000205490508260046000848152602001908152602001600020819055507f748ad17c84288152c6f59a6e02bd1d19fb2abf07d5f8cd71b6f1159864c0d1e4338285856002604051808673ffffffffffffffffffffffffffffffffffffffff1681526020018581526020018481526020018381526020018260038111156120fc57fe5b81526020019550505050505060405180910390a1505050565b61211d612513565b73ffffffffffffffffffffffffffffffffffffffff1660008054906101000a900473ffffffffffffffffffffffffffffffffffffffff1673ffffffffffffffffffffffffffffffffffffffff16146121dd576040517f08c379a00000000000000000000000000000000000000000000000000000000081526004018080602001828103825260208152602001807f4f776e61626c653a2063616c6c6572206973206e6f7420746865206f776e657281525060200191505060405180910390fd5b60006007549050816007819055507f748ad17c84288152c6f59a6e02bd1d19fb2abf07d5f8cd71b6f1159864c0d1e433828460006001604051808673ffffffffffffffffffffffffffffffffffffffff16815260200185815260200184815260200183815260200182600381111561225157fe5b81526020019550505050505060405180910390a15050565b60075481565b600080600754600654915091509091565b612288612513565b73ffffffffffffffffffffffffffffffffffffffff1660008054906101000a900473ffffffffffffffffffffffffffffffffffffffff1673ffffffffffffffffffffffffffffffffffffffff1614612348576040517f08c379a00000000000000000000000000000000000000000000000000000000081526004018080602001828103825260208152602001807f4f776e61626c653a2063616c6c6572206973206e6f7420746865206f776e657281525060200191505060405180910390fd5b600073ffffffffffffffffffffffffffffffffffffffff168173ffffffffffffffffffffffffffffffffffffffff1614156123ce576040517f08c379a00000000000000000000000000000000000000000000000000000000081526004018080602001828103825260268152602001806125c46026913960400191505060405180910390fd5b8073ffffffffffffffffffffffffffffffffffffffff1660008054906101000a900473ffffffffffffffffffffffffffffffffffffffff1673ffffffffffffffffffffffffffffffffffffffff167f8be0079c531659141344cd1fd0a4f28419497f9722a3daafe3b4186f6b6457e060405160405180910390a3806000806101000a81548173ffffffffffffffffffffffffffffffffffffffff021916908373ffffffffffffffffffffffffffffffffffffffff16021790555050565b600080828401905083811015612509576040517f08c379a000000000000000000000000000000000000000000000000000000000815260040180806020018281038252601b8152602001807f536166654d6174683a206164646974696f6e206f766572666c6f77000000000081525060200191505060405180910390fd5b8091505092915050565b600033905090565b6040518060800160405280600081526020016060815260200160008152602001600073ffffffffffffffffffffffffffffffffffffffff1681525090565b828054828255906000526020600020908101928215612595579160200282015b82811115612594578251825591602001919060010190612579565b5b5090506125a291906125a6565b5090565b5b808211156125bf5760008160009055506001016125a7565b509056fe4f776e61626c653a206e6577206f776e657220697320746865207a65726f2061646472657373a26469706673582212209f23b787e9df4d555c78b36a351aef5c5cd3746710dffb86bba6b28ca52ef9f564736f6c63430007050033",
  "immutableReferences": {},
  "source": "// SPDX-License-Identifier: MIT\n\npragma solidity >=0.6.0 <0.8.0;\n\n// Libraries\nimport './IERC20.sol';\nimport './SafeMath.sol';\nimport './Ownable.sol';\n\ncontract Sonergy_Survey_System_v1 is Ownable{\naddress private sonergyTokenAddress;\naddress private messenger;\nenum ChangeTypes{ SURVEY, REGISTRATION, ADVERT, FEE }\nmapping (uint256 => uint256) private surveyPlans;\nmapping (uint256 => uint256) private advertPlans;\nmapping(address => bool) isAValidator;\n\nuint public fees;\nuint public validatorRegistrationFee;\n\n     struct ValidatedAnswers{\n      uint participantID;\n      uint[] validators;\n      uint surveyID;\n      address messenger;\n    }\nValidatedAnswers[] validatedAns; \nmapping(uint => ValidatedAnswers[]) listOfValidatedAns;\nusing SafeMath for uint256;\n\nconstructor(address _sonergyTokenAddress, uint _fee, uint _validatorRegistrationFee) {\n   sonergyTokenAddress = _sonergyTokenAddress;\n   fees = _fee;\n   validatorRegistrationFee = _validatorRegistrationFee;\n   \n}\nevent PriceChanged(address initiator, uint _from, uint _to, uint _duration, ChangeTypes _type);\nevent NewValidator(uint _userID, address _validator);\nevent ValidatedQuestionByUser(uint[] _validators, uint _participantID, uint _survey_id, uint _newID);\nevent Paid(address creator, uint amount, uint fee, uint _duration, uint survey_id, ChangeTypes _type);\nevent MessengerChanged(address _from, address _to);\nmodifier onlyMessenger() {\n        require(msg.sender == messenger, \"caller is not a messenger\");\n        _;\n}\n\n\nfunction payForSurvey(uint256 survey_id, uint _duration) public {\nIERC20 sonergyToken = IERC20(sonergyTokenAddress);\nuint amount = surveyPlans[_duration];\nrequire(amount > 0, \"Invalid plan\");\nuint fee = uint(int256(amount) / int256(10000) * int256(fees));\nrequire(sonergyToken.allowance(msg.sender, address(this)) >= amount.add(fee), \"Non-sufficient funds\");\nrequire(sonergyToken.transferFrom(msg.sender, address(this), amount.add(fee)), \"Fail to tranfer fund\");\nemit Paid(msg.sender, amount, fee, _duration, survey_id,  ChangeTypes.SURVEY);\n\n}\n\nfunction payForAdvert(uint256 advert_id, uint _duration) public {\nIERC20 sonergyToken = IERC20(sonergyTokenAddress);\nuint amount = advertPlans[_duration];\nrequire(amount > 0, \"Invalid plan\");\n\nrequire(sonergyToken.allowance(msg.sender, address(this)) >= amount, \"Non-sufficient funds\");\nrequire(sonergyToken.transferFrom(msg.sender, address(this), amount), \"Fail to tranfer fund\");\nemit Paid(msg.sender, amount,0, _duration, advert_id, ChangeTypes.ADVERT);\n\n}\n\n\nfunction updateSurveyfee(uint256 _fee) public onlyOwner{\n    uint256 currentSurveyFee = fees;\n    fees = _fee;\n    emit PriceChanged(msg.sender, currentSurveyFee, _fee, 0, ChangeTypes.FEE);\n}\n\nfunction updateRegistrationFee(uint256 _fee) public onlyOwner{\n    uint256 currentRegistrationFee = validatorRegistrationFee;\n    validatorRegistrationFee = _fee;\n    emit PriceChanged(msg.sender, currentRegistrationFee, _fee, 0, ChangeTypes.REGISTRATION);\n}\n\nfunction updateSurveyPlan(uint256 _price, uint _duration) public onlyOwner{\n    uint256 currentSurveyPlanPrice = surveyPlans[_duration];\n    surveyPlans[_duration] = _price;\n    emit PriceChanged(msg.sender, currentSurveyPlanPrice, _price, _duration, ChangeTypes.SURVEY);\n}\n\nfunction updateAdvertPlan(uint256 _price, uint _duration) public onlyOwner{\n    uint256 currentAdvertPlanPrice = advertPlans[_duration];\n     advertPlans[_duration] = _price;\n     emit PriceChanged(msg.sender, currentAdvertPlanPrice, _price, _duration, ChangeTypes.ADVERT);\n   \n}\n\n\nfunction setMessenger(address _messenger) public onlyOwner{\n    address currentMessenger = messenger;\n    messenger = _messenger;\n    emit MessengerChanged(currentMessenger, _messenger);\n}\n\nfunction withdrawEarning() public onlyOwner{\n    IERC20 sonergyToken = IERC20(sonergyTokenAddress);\n    require(sonergyToken.transfer(owner(), sonergyToken.balanceOf(address(this))), \"Fail to empty vault\");\n}\n\nfunction becomeAValidator(uint _userID) public{\n     require(!isAValidator[msg.sender], \"Already a validator\");\n     IERC20 sonergyToken = IERC20(sonergyTokenAddress);\n     require(sonergyToken.allowance(msg.sender, address(this)) >= validatorRegistrationFee, \"Non-sufficient funds\");\n     require(sonergyToken.transferFrom(msg.sender, address(this), validatorRegistrationFee), \"Fail to tranfer fund\");\n     \n     emit NewValidator(_userID, msg.sender);\n     isAValidator[msg.sender] = true;\n}\n\n\nfunction validatedAnswers(uint _participantID, uint[] memory _validators, uint _surveyID) public onlyMessenger{\n    ValidatedAnswers memory _validatedAnswers = ValidatedAnswers({\n      participantID: _participantID,\n      validators: _validators,\n      surveyID: _surveyID,\n      messenger: msg.sender\n    });\n    \n    validatedAns.push(_validatedAnswers);\n    uint256 newID = validatedAns.length - 1;\n   emit ValidatedQuestionByUser(_validators, _participantID, _surveyID, newID);\n}\n\n  function getvalidatedAnswersByID(uint _id) external view returns(uint _participantID, uint[] memory _validators, uint _surveyID,  address _messenger){\n         ValidatedAnswers memory _validatedAnswers = validatedAns[_id];\n         return (_validatedAnswers.participantID, _validatedAnswers.validators,_validatedAnswers.surveyID, _validatedAnswers.messenger);\n     }\n\nfunction getPriceOfPlan(uint _duration) public view returns (uint256 _price) {\n   return surveyPlans[_duration];\n}\n\nfunction getFees() public view returns (uint256 _reg, uint256 _survey) {\n   return (validatorRegistrationFee, fees);\n}\n\n\nfunction getPriceOfAdevert(uint _duration) public view returns (uint256 _price) {\n   return advertPlans[_duration];\n}\nfunction setSonergyTokenAddress(address _sonergyTokenAddress) public onlyOwner{\n     sonergyTokenAddress = _sonergyTokenAddress;\n    }\n\n   \n\n    function getSonergyTokenAddress() public view returns (address _sonergyTokenAddress) {\n        return(sonergyTokenAddress);\n    }\n\n}",
  "sourcePath": "/home/chidimez/Dapps/sonergy-contract/contracts/SonergySurveySystem.sol",
  "compiler": {
    "name": "solc",
    "version": "0.7.5+commit.eb77ed08.Emscripten.clang"
  },
  "schemaVersion": "3.3.3",
  "updatedAt": "2021-01-06T20:54:15.890Z",
  "devdoc": {
    "kind": "dev",
    "methods": {
      "owner()": {
        "details": "Returns the address of the current owner."
      },
      "renounceOwnership()": {
        "details": "Leaves the contract without owner. It will not be possible to call `onlyOwner` functions anymore. Can only be called by the current owner. NOTE: Renouncing ownership will leave the contract without an owner, thereby removing any functionality that is only available to the owner."
      },
      "transferOwnership(address)": {
        "details": "Transfers ownership of the contract to a new account (`newOwner`). Can only be called by the current owner."
      }
    },
    "version": 1
  },
  "userdoc": {
    "kind": "user",
    "methods": {},
    "version": 1
  }
}